:100000000C94A2050C941F320C94E9050C94E9059C
:100010000C94E9050C94E9050C94E9050C94E905A8
:100020000C94E9050C94E9050C940D270C944926D1
:100030000C94682D0C94E9050C94E9050C94E905E1
:100040000C94E9050C94E9050C94E9050C94E90578
:100050000C94E9050C94DA2C0C94E9050C94E90550
:100060000C94E9050C94E9050C94E9050C94E90558
:100070000C94E9050C94E9050C94E9050C94E90548
:100080000C94E9050C94E9050C94E9050C94E90538
:100090000C94E9050C94E9050C94E9050C94E90528
:1000A0000C94E9050C94E9050C94E905C313C313FA
:1000B000FD13FD1350146C14FE15FE157714551521
:1000C000661566153B16AD16B216B716BC16C116E8
:1000D000C616CB16D016D516DA16E116E416E716B4
:1000E000EA16ED16F016F316F616FB1663248A24AC
:1000F0002B268A242B26D624F9242B26EE25FD2513
:10010000B428B428C728C728BD28C728C728C728A7
:10011000B428B428C228C728C728C228290A00251D
:1001200075002F002575005D28002564002000253E
:100130006400200025640020002564007C00253038
:100140003258006D6F7573656B6579205B62746EF4
:100150007C782079207620685D287265702F616335
:100160006C293A205B00000101010101010101013C
:100170000202020202020202020303030303030358
:100180000304040404040404050505050506060625
:100190000606070707070708080808090909090AE2
:1001A0000A0A0B0B0B0C0C0C0D0D0D0E0E0E0F0F87
:1001B0000F10101111111212131314141515161615
:1001C0001717181819191A1A1B1B1C1D1D1E1E1F84
:1001D0002020212222232424252626272829292AD3
:1001E0002B2C2D2D2E2F30313232333435363738FB
:1001F000393A3B3C3D3E3F404142434445464748F7
:10020000494A4C4D4E4F50515354555658595A5BCC
:100210005D5E5F616264656668696B6C6D6F70726C
:10022000737577787A7B7D7E8082838587888A8CD8
:100230008E8F91939596989A9C9EA0A2A3A5A7A90C
:10024000ABADAFB1B3B5B7BABCBEC0C2C4C6C9CB03
:10025000CDCFD1D4D6D8DBDDDFE2E4E7E9EBEEF0B9
:10026000F3F5F8FAFDFF7267626C69676874206DD8
:100270006F6465205B4E4F454550524F4D5D3A20AF
:1002800025750A007267626C69676874206D6F6417
:1002900065205B454550524F4D5D3A2025750A005B
:1002A0007267626C6967687420656E61626C652054
:1002B0005B454550524F4D5D3A207267626C6967ED
:1002C00068745F636F6E6669672E656E61626C65E8
:1002D000203D2025750A007267626C69676874208A
:1002E00073657420687376205B4E4F454550524FBE
:1002F0004D5D3A2025752C25752C25750A007267F1
:10030000626C696768742073657420687376205B1B
:10031000454550524F4D5D3A2025752C25752C25AD
:10032000750A007267626C69676874207261696E31
:10033000626F7720736574206873763A2025642C89
:1003400025642C25642C25750A00FFAA7F55407270
:1003500067626C696768742064697361626C6520A8
:100360005B4E4F454550524F4D5D3A207267626C6F
:10037000696768745F636F6E6669672E656E616238
:100380006C65203D2025750A006261636B6C6967AE
:1003900068742064656372656173653A2025750A27
:1003A000006261636B6C6967687420696E63726573
:1003B0006173653A2025750A006261636B6C696739
:1003C00068742064697361626C650A006261636BC2
:1003D0006C6967687420746F67676C653A2025756F
:1003E0000A006261636B6C6967687420737465707E
:1003F0003A2025750A007267626C69676874206428
:10040000697361626C65205B454550524F4D5D3AA2
:10041000207267626C696768745F636F6E66696794
:100420002E656E61626C65203D2025750A0072673D
:10043000626C6967687420746F67676C65205B45E0
:100440004550524F4D5D3A207267626C696768741F
:100450005F636F6E6669672E656E61626C65203DD5
:100460002025750A0044454255473A206469736166
:10047000626C65642E0A0044454255473A20656E19
:1004800061626C65642E0A00165C1E001F0020006D
:10049000210022002B0014001A000800150017008C
:1004A000E00004001600070009000A00D85C1D00E7
:1004B0001B0006001900050000000000E3002A5D93
:1004C000280035002A0027002600250024002300EC
:1004D0003100130012000C0018001C00340033001F
:1004E0000F000E000D000B00D95C380037003600FD
:1004F0001000110000000000E6002B5D2C004C00F5
:1005000035021E021F0220022102220201003500D4
:100510002D022F02300201004C002E022D002F0070
:1005200030002E0001000100010001000100010067
:1005300000000000010001004C0001002A00270219
:10054000260225022402230201002D022600250096
:10055000240001002E002E025E005D005C00010000
:1005600001002D005B005A0059000100000000004E
:10057000620001004C00010045003A003B003C00D5
:100580003D003E00010001000100010001000100EA
:1005900001000100AC00AE00AB0001000100010051
:1005A0000100010001000100000000000100010045
:1005B00001002602440043004200410040003F0089
:1005C000010001004D004B004E004A004C002A0083
:1005D0004F005200510050000100010001000100D5
:1005E0000100010000000000010001000100010005
:1005F000005C01000100010001000100C35C1E025B
:100600001F02200221022202C45CAC00AB00A90040
:100610004B002D02A800AD00AE00AA004E002D0038
:10062000000000000100010001002602010001009D
:10063000010001000100010001002702260225023D
:10064000240223020100CA5CC85CC65C4A002E007A
:100650000100CB5CC95CC75C4D002E0200000000AD
:1006600001000100010001007267626C6967687433
:100670005F636F6E6669672E7370656564203D20E9
:1006800025640A007267626C696768745F636F6EE5
:100690006669672E76616C203D2025640A007267CA
:1006A000626C696768745F636F6E6669672E7361F9
:1006B00074203D2025640A007267626C6967687463
:1006C0005F636F6E6669672E687565203D202564DF
:1006D0000A007267686C696768745F636F6E666949
:1006E000672E6D6F6465203D2025640A0072676285
:1006F0006C696768745F636F6E6669672E656E61AB
:10070000626C65203D2025640A007267626C69672F
:1007100068745F636F6E66696720454550524F4D40
:100720003A0A007267626C696768745F696E69741F
:10073000207267626C696768745F636F6E66696771
:100740002E6D6F6465203D20302E205772697465D0
:100750002064656661756C742076616C75657320C4
:10076000746F20454550524F4D2E0A007267626CDF
:10077000696768745F696E6974206565636F6E662A
:100780006967206973206E6F7420656E61626C65A5
:10079000642E0A007267626C696768745F696E69CB
:1007A00074207374617274210A007267626C6967E5
:1007B00068745F696E69742063616C6C65642E0A8D
:1007C000000A0025303862003A20002530325800F7
:1007D0000A722F632030313233343536370A0072D3
:1007E00067626C6967687420616E696D6174696FB6
:1007F0006E207469636B207265706F727420746F01
:1008000020736C6176650A001E0F0500047F3F1F90
:10081000643214643214783C1E1E140A050A002542
:10082000303258006B6579626F6172645F73657412
:100830005F6C65643A20005B735D004B6579626FA5
:100840006172642073746172742E0A007267626C44
:10085000696768742074696D657220656E61626C89
:1008600065642E0A007267626C6967687420746937
:100870006D65722064697361626C652E0A002223C3
:10088000252628292A2C2D2F3032333536383A3B6D
:100890003D3E4042434547494A4C4E5051535557BF
:1008A000595A5C5E6062646668696B6D6F717375DE
:1008B00077797B7D7F81838587898A8C8E909294DE
:1008C00096989A9C9E9FA1A3A5A7A8AAACAEAFB1EB
:1008D000B3B4B6B8B9BBBCBEBFC1C2C3C5C6C7C935
:1008E000CACBCCCDCED0D1D2D2D3D4D5D6D7D7D8EF
:1008F000D9D9DADADBDBDBDCDCDCDCDCDDDDDDDD41
:10090000DCDCDCDCDCDBDBDBDADAD9D9D8D7D7D648
:10091000D5D4D3D2D2D1D0CECDCCCBCAC9C7C6C5FF
:10092000C3C2C1BFBEBCBBB9B8B6B4B3B1AFAEAC45
:10093000AAA8A7A5A3A19F9E9C9A98969492908EF0
:100940008C8A89878583817F7D7B79777573716FC9
:100950006D6B6968666462605E5C5A5957555351A5
:10096000504E4C4A4947454342403E3D3B3A38365B
:10097000353332302F2D2C2A292826252322626157
:10098000636B6C6967687420656E61626C650A00F0
:100990000631FF0974A1010975150026FF00952095
:1009A000750881020976150026FF009520750891CB
:1009B00002C005010902A10185020901A100050982
:1009C0001901290815002501950875018102050105
:1009D000093009311581257F95027508810609388E
:1009E0001581257F950175088106050C0A380215C9
:1009F00081257F950175088106C0C005010980A188
:100A000001850319012AB700150126B70095017564
:100A1000108100C0050C0901A101850419012AA05B
:100A200002150126A002950175108100C00501097B
:100A300006A101050719E029E715002501950875AC
:100A40000181029501750881010507190029FF152B
:100A50000026FF0095067508810005081901290583
:100A6000950575019102950175039101C05B435D88
:100A7000005B445D005B535D005B575D005B525D56
:100A80000009025B00030100A0FA09040000010351
:100A90000101000921110100012240000705810325
:100AA00008000A09040100010300000009211101E6
:100AB0000001227B000705820320000A09040200CE
:100AC0000203000000092111010001222200070594
:100AD0008303200001070503032000011201100118
:100AE0000000000810CB564200040102000126035A
:100AF0004B0065006500620069006F00200049003E
:100B000072006900730020005200650076002E001C
:100B10002000340000000E034B00650065006200F9
:100B200069006F000000040309040A0025303258F0
:100B300020006B6579626F6172645F7265706F72BD
:100B4000743A200011241FBECFEFDAE0DEBFCDBF24
:100B500004B603FE27C08091370390913803A0911B
:100B60003903B0913A038730904BA740B04BD1F492
:100B700010923703109238031092390310923A03FF
:100B800014BE84B7877F84BF0FB6F894A895809170
:100B90006000886180936000109260000FBEE0E00A
:100BA000F8E3099511E0A0E0B1E0EEE5F9E602C056
:100BB00005900D92A63CB107D9F723E0A6ECB1E071
:100BC00001C01D92A733B207E1F70E9413170C94DE
:100BD000AD340C940000FF93EF93E091C601F091C7
:100BE000C701309709F00995EF91FF910895FC0135
:100BF0008591803011F0EFDFFBCF0895FF27E0E211
:100C000030E247FF0CC0419597FF09C0EDE26095C7
:100C1000709580959095611D711D811D911D27FF17
:100C200002C0219530E350E2AA27660F771F881F84
:100C3000991FAA1FA41710F0A41B63955A95A9F732
:100C4000AA3008F0A95FA05DAF93F3956115710517
:100C50008105910541F7ED3211F4EF93F395F21709
:100C600018F43F93F395FBCF8F91B5DFFA95E1F739
:100C70000895E991F9918591803021F0853219F03C
:100C8000AADFF9CF089520E0E89455915532C1F3D9
:100C9000503311F4689455915A3348F4505390F3FB
:100CA000220F022E220F220F200D250FF4CF0EF45B
:100CB000219589919991533619F3533729F1533579
:100CC00059F1BC0188279927E8945C3621F4899171
:100CD000999168945591543639F446EF7EF077FF38
:100CE0000DC08FEF9FEF0AC055374AE039F05835F5
:100CF00040E121F0523642E009F00895FF93EF936E
:100D00007DDFEF91FF91B7CFFF93EF93FC018191CE
:100D10008030B9F360DFFBCFFF93EF9368DFF1CF53
:100D2000DF93CF93CDB7DEB72596A3DFCF91DF91C9
:100D300008959091E30192FF0DC0282F287128306B
:100D400019F4877F846006C0282F2471243011F4A1
:100D50008B7F886093FF0DC0282F2871283119F4EC
:100D6000877E846106C0282F2471243111F48B7E84
:100D700088612091E40120FF0DC0382F3871383090
:100D800019F4877F816006C0382F3171313011F43A
:100D90008E7F886021FF0DC0282F2871283119F41B
:100DA000877E816106C0282F2171213111F48E7E4A
:100DB000886194FD877E08959C013A9521153F41F5
:100DC00038F5DC01AA27B270AC01442754709C01AD
:100DD0002227387094FF0FC090FF02C080E101C04D
:100DE00080E0AB2B09F08062452B09F08064232B57
:100DF00069F080680BC0892F8170AB2B09F082608D
:100E0000452B09F08460232B09F08860FB010994CD
:100E100008950F931F93CF93DF93EC018C01005E35
:100E200011090830110510F0892B19F46BEE78E2E6
:100E300002C066ED78E2CE010E94DC068C2F0E9493
:100E4000332B8C2F0E94CC2A0830110510F02097EC
:100E500019F460EE78E202C06BEC78E2CE01DF912B
:100E6000CF911F910F910C94DC0625E0EDEFF1E09E
:100E7000DC0101900D922A95E1F720910202309158
:100E8000030240910402FC012583368347830895C1
:100E90001092040208958091040208953091050192
:100EA0008091FD0180FF16C0E091040163E0E69FA0
:100EB000F0011124EB5DFD4F569A8BB18F7B9BB1F6
:100EC00090642FB7F894AF0163E0369F400D511D39
:100ED000112414C08091060190910701891720F711
:100EE000E82FF0E0AF01440F551FE40FF51FEB5D55
:100EF000FD4F1182108212828F5FF0CFE417F50749
:100F000089F0319168E09BB9000000C037FF8BB9D0
:100F1000330F000000C000C000C08BB900C06A954C
:100F200091F7ECCF2FBF8FE594E00197F1F700C068
:100F3000000008959091FD0190FF16C09091060168
:100F400020910701921770F4E92FF0E0DF01AA0F5A
:100F5000BB1FEA0FFB1FEB5DFD4F81836083428364
:100F60009F5FF0CF0C944E0708958091FD01282FCC
:100F7000269530E02115310519F48170826005C095
:100F80002B32310524F0817084658093FD01089532
:100F9000CF92DF92EF92FF926B017C010E94B50726
:100FA000B701A60188E090E0FF90EF90DF90CF902E
:100FB0000C94B43380910102882319F081508093FE
:100FC00001026091FD017091FE018091FF019091FD
:100FD00000020C94C80780910102833018F48F5FDF
:100FE000809301026091FD017091FE018091FF01EB
:100FF000909100020C94C807EDEFF1E083E080834C
:1010000011828FEF828383831482A2E0B2E0129672
:101010008C911297836012968C936081718182818A
:1010200093810C94C807AF92BF92CF92DF92EF9258
:10103000FF920F931F93CF93DF93E82EF62EE901D3
:10104000E42FF0E0611106C0EA59FE4FE4914E2F03
:101050002E2F71C0062F10E0EA59FE4F4491F42F55
:10106000C42ED12C26E0829FC00111242FEF30E046
:10107000B9010E9463345BEA5603C001579F900D8B
:1010800011248E0D911D8E0D911D582F550F580F47
:10109000D901A01BB10BAC9DC001AD9D900DBC9DB5
:1010A000900D1124E92FF59ED0011124AB2FBB2701
:1010B0007901EA1AFB0AEC9CD001ED9CB00DFC9C76
:1010C000B00D11245901A51AB108A09E7001A19E6E
:1010D000F00CB09EF00C1124EF2CFF242E193F09C8
:1010E0002C9D80012D9D100D3C9D100D1124212F54
:1010F0006230710591F048F461157105E1F06130DD
:101100007105B9F4242F4B2F16C06430710569F0B6
:1011100040F06630710579F00CC0242F492FE12F83
:101120000AC0492FEF2F2B2F06C0292FE42F412F64
:1011300002C0292FEB2F49832883EA83DF91CF91C7
:101140001F910F91FF90EF90DF90CF90BF90AF90E5
:101150000895CF93DF9300D01F92CDB7DEB7909163
:10116000FD0190FF0AC09E012F5F3F4F0E941308B0
:101170004B8169818A810E949A070F900F900F908E
:10118000DF91CF9108954F925F926F927F928F92ED
:101190009F92AF92BF92CF92DF92EF92FF920F9306
:1011A0001F93CF93DF9300D01F92CDB7DEB7F82EF9
:1011B000D62EE42E622E9091FD0190FFC5C0E92F3E
:1011C000E695AE2FB0E0A55BBE4F8C9180930202F6
:1011D0009E7F923061F49E012F5F3F4F8F2D0E94C2
:1011E00013084B8169818A810E949A0762C082300C
:1011F00019F4E09000025DC0863019F4F090FE0111
:1012000058C08930D9F3893109F053C0E9518E2F84
:101210008170782E81E0C72CC826E695F0E0E65B69
:10122000FC4FA590B490412CBB2493E2892E93E00F
:10123000992E609108014616D0F5042D10E00A9D04
:10124000C0010B9D900D1A9D900D112470E00E941D
:1012500063345F2C711002C0560E01C0561A809183
:10126000170280FF11C0BF92AF921F92CF921F92C0
:101270005F921F924F929F928F920E9490060FB69C
:10128000F894DEBF0FBECDBF80910601080F111D7F
:101290009801220F331F020F131F98012B5D3D4F42
:1012A0004E2D6D2D852D0E9413084394C2CF0E94B0
:1012B0004E078091FE01F81208C08091FF01D812FC
:1012C00004C080910002E81629F080910402826037
:1012D00080930402F092FE01D092FF01E09200029E
:1012E0006620E9F06091FD017091FE018091FF019F
:1012F000909100020E94C8078091170280FF24C0CD
:10130000809100021F928F938091FF011F928F9313
:101310008091FE011F928F938EEF92E00CC080911E
:10132000170280FF11C01F92EF921F92DF921F924F
:10133000FF9287ED92E09F938F930E9490060FB6E5
:10134000F894DEBF0FBECDBF0F900F900F90DF91CE
:10135000CF911F910F91FF90EF90DF90CF90BF90B2
:10136000AF909F908F907F906F905F904F90089577
:10137000EDEFF1E0438121E1421B08F440E021E080
:10138000628181810C94C308EDEFF1E0438121E19A
:10139000420F08F44FEF21E0628181810C94C30871
:1013A000EDEFF1E0628121E1621B08F460E021E0F1
:1013B000438181810C94C308EDEFF1E0628121E16A
:1013C000620F08F46FEF21E0438181810C94C30820
:1013D000EDEFF1E0818121E04381628188500C943E
:1013E000C308EDEFF1E0818121E043816281885FF4
:1013F0000C94C3089091FD0190FF5AC09170811127
:1014000002C0926006C08B3210F0946502C0880F53
:10141000982B9093FD0180910402816080930402D7
:101420006623B1F06091FD017091FE018091FF0192
:10143000909100020E94C8078091170280FF1BC094
:101440008091FD0186951F928F9384E892E00BC0F6
:101450008091170280FF0FC08091FD0186951F9239
:101460008F9386E692E09F938F930E9490060F9051
:101470000F900F900F906091FD01669570E04BE02A
:1014800050E086E291E00E94A034892B19F00E947E
:10149000F92202C00E940D2381E08093FA0120E02E
:1014A000409100026091FF018091FE010C94C308FD
:1014B00008951F93CF93DF93EC01162F8F8180FF48
:1014C00032C098818091FD0190FF08C081608093B7
:1014D000FD01888186950E94FA0925C08E7F809340
:1014E000FD018091170280FF0CC01F921F928FE4B4
:1014F00093E09F938F930E9490060F900F900F9010
:101500000F900E94F922809104028160809304026E
:101510002FEF80E792E0215080409040E1F700C03B
:1015200000000E944E078F8181FF06C0212F4B8152
:101530006A8189810E94C3088F8182FF08C08E81E1
:10154000882319F00E940D2302C00E94F9228F8186
:1015500083FF03C081E08093FA01DF91CF911F9157
:1015600008958091FD0181608093FD0180911702B3
:1015700080FF0DC01F9281E08F9380EA92E09F93DD
:101580008F930E9490060F900F900F900F90809174
:10159000FD0161E086950C94FA098091FD01869524
:1015A000815009F48AE261E00C94FA098091FD010E
:1015B00086958F5F8B3208F081E061E00C94FA0928
:1015C0008091170283FF7EC083E491E00E94F705BB
:1015D000809111021F928F938EE391E09F938F93DE
:1015E0000E9490068CE391E00E94F7058091120220
:1015F000282F082E000C330B3F938F9389E391E043
:101600009F938F930E94900687E391E00E94F705D5
:1016100080911302282F082E000C330B3F938F93D9
:1016200084E391E09F938F930E94900682E391E080
:101630000E94F70580911402282F082E000C330B0E
:101640003F938F938FE291E09F938F930E94900638
:101650008DE291E00E94F70580911502282F082E57
:10166000000C330B3F938F938AE291E09F938F930B
:101670000E94900687E291E00E94F70580910D029A
:101680001F928F9384E291E09F938F930E94900624
:1016900082E291E00E94F7058091A8021F928F9349
:1016A0008FE191E09F938F930E9490068CE191E0EF
:1016B0000E94F7058DB79EB74C960FB6F8949EBF63
:1016C0000FBE8DBF0E94532D20911202211104C024
:1016D00020911302222321F090930F0280930E0297
:1016E00020911402211104C020911502222321F01F
:1016F00090930C0280930B02E091E701F091E801D6
:10170000309749F082E0809310020480F581E02D4B
:1017100080E192E0099408958D3E39F4909113028E
:1017200097FF35C01092130259C08E3E29F4909154
:1017300013021916BCF32BC0909112028F3E29F4AC
:1017400097FF25C01092120249C0803F19F4191664
:10175000CCF31DC090911402893F29F41916BCF4F2
:10176000109214023BC08A3F19F497FF10C0F8CFC3
:101770008B3F39F49091150297FF09C01092150222
:101780002DC08C3F21F4909115021916BCF39FE0F7
:10179000980F983080F421E030E0A90102C0440F96
:1017A000551F9A95E2F7CA018095909111028923FD
:1017B0008093110213C08D3F21F48091A8028E7F87
:1017C0000BC08E3F21F48091A8028D7F05C08F3F12
:1017D00029F48091A8028B7F8093A8028091120245
:1017E000811106C080911302811102C010920D0276
:1017F00080911402811106C080911502811102C0EE
:1018000010920A0208958091A80280FD16C081FD01
:1018100016C082FD18C080910A02882391F0883298
:1018200090F428E0829FC001112468E270E00E94D9
:101830007734862F672B29F007C082E0089584E073
:10184000089581E0089588E008958091A80280FDC0
:1018500017C081FD17C082FD19C080910D02882339
:1018600099F08C3398F423E2829FC00111246CE339
:1018700070E00E947734862F672B49F481E0089549
:1018800088E0089581E1089585E0089583E2089550
:101890008D3E21F40E94250C819504C08E3E29F4D2
:1018A0000E94250C8093130208958F3E21F40E941C
:1018B000250C819504C0803F29F40E94250C80935B
:1018C00012020895893F19F40E94030C05C08A3F53
:1018D00031F40E94030C81958093140208958B3F8C
:1018E00021F40E94030C819504C08C3F29F40E94CE
:1018F000030C8093150208959FE0980F983078F4B8
:1019000021E030E0A90102C0440F551F9A95E2F78B
:10191000CA0190911102892B8093110208958D3F85
:1019200021F48091A80281600BC08E3F21F4809148
:10193000A802826005C08F3F29F48091A8028460CC
:101940008093A80208958091CF01811112C08091E7
:10195000D80080618093D8008AE18A95F1F700C0B1
:101960008091D90080FD02C082E001C081E08093B7
:10197000CF0181E09091CF01913009F080E008958E
:10198000F894E82FE295EF70F0E031A1282F2F7046
:1019900081E090E001C0880F2A95EAF7982F909592
:1019A000932391A392A1892B82A3789408958F9277
:1019B0009F92AF92BF92CF92DF92EF92FF920F93DE
:1019C0001F93CF93DF9300D000D01F92CDB7DEB727
:1019D0000FE011E087EDC82E81E0D82E4601F12CF2
:1019E000AA24A394B12CB801D8018C91F894E82FC3
:1019F000E295EF70F0E021A18F70A50102C0440FC5
:101A0000551F8A95E2F7CA01922F982B91A392A1B4
:101A10008095892382A3789400C0E9E0F1E020E07A
:101A200030E0E12C4191842F82958F7090E0DC01B1
:101A300090968C9190E04F7002C0959587954A954D
:101A4000E2F780FD07C08A2D022E01C0880F0A949C
:101A5000EAF701C080E0E82A2F5F3F4F26303105CA
:101A600009F70F5F1F4FFB0180810E94C00CF0EA55
:101A7000FA95F1F7D4018C91E81619F0EC9281E017
:101A800001C080E0F82ABFEF8B1A9B0AE1E0043125
:101A90001E0709F0A8CF1091E201FF2049F081E074
:101AA0008093CA010E94532D9093C9018093C8016D
:101AB0008091CA018823B9F08091C8019091C90131
:101AC0000E94002D069778F0E12FF0E0E651FE4FDE
:101AD000D6018D916D018193BCEDCB16B1E0DB0693
:101AE000B9F71092CA010E94A30C6091E201882309
:101AF00009F452C08E010F5F1F4F85E0F80111926B
:101B00008A95E9F7862F90E0B80186519E4F0E9492
:101B10000C31811116C08091CE018F5F8093CE0170
:101B2000863030F1E091E101F0E0E651FE4FD8015E
:101B3000CE01069611921D928A179B07D9F711E0E4
:101B400018C01092CE01A091E101B0E0A651BE4FA5
:101B5000F8019E012A5F3F4F10E081919C919817F8
:101B600011F08C9311E011962E173F07B1F701C0C9
:101B700010E08091CD018823D1F08091CB0190912C
:101B8000CC010E94002D8D3B924088F082EE0E9495
:101B9000CC2A1092CD010BC070E066517E4F80912F
:101BA000E10190E086519E4F0E94483110E0F11013
:101BB00002C0812F02C081E090E00F900F900F9043
:101BC0000F900F90DF91CF911F910F91FF90EF90A9
:101BD000DF90CF90BF90AF909F908F900895CF935C
:101BE000DF932CE3829FC0011124FC0146E0749F27
:101BF000E00DF11D1124E60FF11DEE0FFF1FE85758
:101C0000FB4FC591D491CE01C238D10569F1B0F432
:101C1000C133D10509F475C048F4C932D10509F4BE
:101C200069C0CA32D10509F473C085C0C533D10576
:101C300009F459C0C933D105B9F07DC0C33ED105FF
:101C400071F138F4C03ED105B1F0C23ED10511F1B9
:101C500072C0C63ED105B9F1C73ED105C9F1C43E37
:101C6000D10509F068C024C02091E30120FD5DC0CA
:101C700021FD5BC060C02091E30120FD50C0209198
:101C8000E40120FF51C18091E30184FD4BC183EE4B
:101C900090E04AC12091E30122FF46C1F4CF809138
:101CA000E30182FD3FC08091E40180FD3EC0EBCFA7
:101CB0002091E40121FF38C18091E30184FD32C10C
:101CC00087EE90E031C12091E30123FF2DC1F4CFD5
:101CD0008091E30183FD2CC08091E40181FFECCF72
:101CE00084EE90E021C12091E30125FF1DC189E22E
:101CF00090E01AC12091E30125FF16C185E390E031
:101D000013C12091E30126FF0FC18AE290E00CC1CC
:101D10002091E30126FF08C181E390E005C189E33A
:101D200090E002C182EE90E0FFC080EE90E0FCC047
:101D300086EE90E0F9C0C11551E5D50708F06CC0FA
:101D4000C11520E5D207F0F0CE01F4E09695879515
:101D5000FA95E1F7282F23703C2F337081E090E053
:101D600002C0880F991F3A95E2F79C68922B2C2F9E
:101D70002F702695269550E2259F90011124822BE5
:101D8000932BD2C0C83ED10570F5C03ED10508F0F6
:101D9000CBC0C83AD105B8F4C53AD10550F02C2FC4
:101DA000255AC22FD0E0CB56DE4F888190E0906458
:101DB000BBC0C130D10509F4B7C008F4B3C0249743
:101DC00008F4B0C0B1C0CF3BD10508F0ABC02C2F98
:101DD000285AC22FD0E0CC0FDD1FC856DE4F8881B5
:101DE00099819464A1C0C11540E2D40760F4C11583
:101DF00051E0D50708F098C0CD3ED10508F492C057
:101E0000CE01906591C0C11580E4D80708F48AC05E
:101E1000CE019F70906A88C0C11525E5D20708F0F1
:101E200040C0C11544E5D40728F09C2F8827846F53
:101E3000906A7AC0C11553E5D507A8F09E012370BA
:101E4000332781E090E002C0880F991F2A95E2F7BE
:101E50002C2F2695269550E2259F90011124822B48
:101E6000932B9A6861C0C11582E5D80728F49C2F8E
:101E70008827816F906A58C09E012370332781E0C4
:101E800090E002C0880F991F2A95E2F72C2F269523
:101E9000269540E2249F90011124822B932B9C686D
:101EA00043C0C11529E5D207B0F4C11548E5D407F0
:101EB00028F09C2F8827806F906A36C0C11556E5A0
:101EC000D50780F58C2F0E9499068F7190E0982F8E
:101ED0008827906229C0C1158AE5D80790F48C2F15
:101EE0008F700E9499069E0194E0369527959A95E9
:101EF000E1F72F7030E0322F22273069A901482BFB
:101F00000FC0CE0190568115904260F48D2F8F71D5
:101F10000E9499069E01332730628F71A901582BC8
:101F2000CA0102C080E090E0DF91CF9108958295D0
:101F3000982F937344E0949F900111248C7C869594
:101F40008695282B822F8575880F2A7A2695822BD5
:101F50000895CF93C62F811139C00E94652F882321
:101F600041F18091CD01C11111C0811106C081E004
:101F70008093CD0182EE0E94332B0E94532D9093CB
:101F8000CC018093CB018BE290E010C0811106C0A0
:101F900081E08093CD0182EE0E94332B0E94532D6D
:101FA0009093CC018093CB018BE292E0CF910C9483
:101FB000090782E00E94652F882331F1C11103C017
:101FC0008FE499E0F3CF80E599E0F0CF8130E1F440
:101FD00080E00E94652F882341F060E070E0CC2310
:101FE00011F089EF0EC08AEF0CC081E00E94652FCE
:101FF000882351F060E070E0C11102C089EA01C09D
:102000008AEACF910C94D72BCF9108958F929F920B
:10201000AF92BF92CF92DF92EF92FF920F931F93F6
:10202000CF93DF93CDB7DEB72A970FB6F894DEBF14
:102030000FBECDBFFC010081D18083819481892BAB
:1020400039F01FEFD11206C091E00F3F19F403C021
:1020500091E001C090E090FDD3C67F0185E0DE01F4
:10206000169601900D928A95E1F7F70122818E81F3
:102070009F81222349F00E94BF2E182F682F8E8146
:102080009F810E94392F03C00E940C2F182F2CE330
:10209000129FF001112436E0D39EE00DF11D1124B2
:1020A000E00FF11DEE0FFF1FE857FB4F0591149154
:1020B000F70192810A32FDE51F07F1F028F4093299
:1020C0003DE5130751F02EC00B328DE51807B1F036
:1020D0000C32EDE51E07E9F025C0992309F415C679
:1020E00061E083E090E00E94A23361E070E080E074
:1020F00090E00E94EA2F09C681E001C082E09111C0
:1021000005C00E948B2F0E943423FFC50E94C92F57
:10211000FACF83E0992319F00E94C92FF6C50E94D7
:102120008B2FF3C5992309F4EAC00E3BFCE51F078A
:10213000E1F058F40C3B3CE5130799F00D3B8CE5BE
:10214000180709F0DCC080E00DC0003CECE51E077C
:1021500009F462C0A8F1013C2CE5120709F48FC014
:10216000CEC085E00E947522D0C58091D001982F05
:10217000969596959695B1F0915E990F990F990F56
:102180008770892B8093D001887F91E009F490E0DB
:102190006091D00190FB60F96093D00186E090E0FF
:1021A0000E94A2338091170280FFA3C08091D001CA
:1021B0008695869586951F928F9389E893E091C0C6
:1021C0002091D001822F869586958695482F50E0E4
:1021D0004530510554F48F5F982F990F990F990F3F
:1021E000822F8770892B8093D0016091D00161602C
:1021F0006093D00186E090E00E94A23380911702A4
:1022000080FF77C08091D0018695869586951F9234
:102210008F9381EA93E065C01091D0011170809195
:10222000170280FF0CC01F921F938CEC93E09F93CA
:102230008F930E9490060F900F900F900F90112394
:10224000D9F06091D00160FF60C56E7F6093D001CE
:1022500086E090E00E94A2338091170280FF08C0C0
:1022600089EB93E09F938F930E9490060F900F90BD
:1022700080E00E940A2249C50E94982246C58091AA
:10228000D001282F2695269526952F5F2F71922F06
:10229000990F990F990F8770892B8093D001263061
:1022A00018F087708093D0018091D001887F91E0F1
:1022B00009F490E06091D00190FB60F96093D00147
:1022C00086E090E00E94A2338091170280FF11C047
:1022D0008091D0018695869586951F928F9382EE88
:1022E00093E09F938F930E9490060F900F900F9012
:1022F0000F908091D001869586958695BACF043F40
:102300002CE5120799F406E221EE40EE64EF7CE53D
:1023100009C0083DFCE51F0711F506E221EE41EE7C
:1023200068ED7CE5C7010E943421EFC4053F3CE520
:10233000130708F040C1093D8CE5180731F407E2A6
:1023400025EE45EE69ED7CE5EDCF0A3DECE51E0797
:1023500001F708E221E045EE6AED7CE5E3CF992341
:1023600009F45EC11092D10102303CE5130708F474
:1023700041C106318CE5180738F098012B5F3C45C8
:102380002930310508F036C10E94B82D9093E40140
:102390008093E30100319CE5190709F4C3C008F0FC
:1023A00041C00830FCE51F0709F49AC0F0F404307E
:1023B0003CE5130709F487C068F402309CE519076F
:1023C00009F477C003301C4509F0E5C08091E301B2
:1023D000826076C00630FCE51F0709F46EC008F085
:1023E0007BC08091E30188606BC00C303CE5130733
:1023F00009F485C068F40A309CE5190709F474C033
:1024000008F079C00E94C12A8091E301806858C019
:102410000E30FCE51F0709F476C008F07FC08091FC
:10242000E3018BC00C3F3CE5130709F44FC018F5DE
:1024300003319CE5190709F47DC078F40131FCE50E
:102440001F0709F473C002311C4509F0A4C00E94A3
:10245000C12A8091E3018F7733C005313CE5130732
:1024600009F472C008F486C00B3F1C4509F093C004
:102470008091E4013EC00115EDE51E0709F45FC03F
:1024800058F40E3F2CE5120709F444C008F43FC08D
:102490008091E40182602DC002308DE5180709F4B7
:1024A00075C008F45DC003301D4509F074C060E0DC
:1024B0006EC08091E301816003C08091E30180617F
:1024C0008093E30168C08091E30111C08091E40131
:1024D00082608093E4015FC08091E3018062F0CF6D
:1024E0008091E3018064ECCF8091E3018860846097
:1024F000E7CF8160EECF8091E3018E7FE1CF8091C5
:10250000E3018D7FDDCF8091E301877FD9CF80917B
:10251000E40118C08091E4018D7FDBCF8091E3015D
:102520008F7ECECF8091E3018F7DCACF8091E30172
:102530008F7BC6CF8091E301877F8B7FC1CF809156
:10254000E4018D7F8E7FC5CF8091E30182FB22273E
:1025500020F991E0922790FB82F990FB83F9B0CFAC
:102560008091E401982F909591708E7F892B90FB3C
:1025700081F9AFCF0E94C12A8091E30187FB222716
:1025800020F991E0922790FB87F99ACF61E08EE0E5
:1025900090E00E94A2336091E3011091E40184E095
:1025A00090E00E94A233612F81E290E00E94A2336A
:1025B0000E94C12AAAC3063F2CE5120731F406E2A5
:1025C00021EE42EE66EF7CE5ADCE063F3CE513071B
:1025D00030F407E225EE44EE65EF7CE5A3CE073F3D
:1025E0008CE5180709F0BBCE07E225EE46EE67EF53
:1025F0007CE598CE0631ECE51E0721F580911403A9
:102600008A7A91E009F490E09093D201882311F046
:1026100065E301C069E289EA92E00E949E2D0FC045
:102620000631FCE51F0709F05FC08091D2018823C5
:1026300009F48AC365E389EA92E00E94912D0E9421
:10264000552E63C301302CE51207C1F10F3D3CE567
:10265000130709F446C001151C4509F04FC00E943C
:10266000C12A9FEFE4E3FCE09150E040F040E1F745
:1026700000C0000081E08093E00080E28093D800F9
:102680001092C9008FE19EE40197F1F700C00000AD
:1026900087E090EBDC018093370390933803A0939D
:1026A0003903B0933A039CE088E10FB6F894A895FB
:1026B000809360000FBE90936000FFCF809117025F
:1026C000982F9095917090FB80F980931702992331
:1026D00019F087E794E002C085E694E00E94F705D0
:1026E00014C30E94D42D11C3809114038272F80187
:1026F000E35CFC45E431F10508F428C3F7010081EF
:102700001181992349F0C8010E94BF2ED82E682F4D
:10271000C8010E94392F04C0C8010E940C2FD82E76
:10272000B8018D2D0E94EF0D8C01982EF701D280FB
:10273000A580A2942FE0A22280911103877099F0C6
:10274000DD2089F0812F807F803421F080E2800FAE
:10275000883048F082E00E94B02F8091110387708A
:10276000CC24C3948111C12CB12EB2949FE0B92224
:102770008B2D90E08C30910508F040C2FC01EA5AA4
:10278000FF4F0C948B34812F807F1F70882311F0B2
:102790001295107FDD20B9F0112309F41AC280E2EE
:1027A000800F883010F0911006C080911403182B10
:1027B0001093140305C080911303182B1093130377
:1027C0000E94552E06C2802F0E94CC2A112309F4A4
:1027D00015C2005E1095083010F0911006C080916F
:1027E000140318231093140305C0809113031823B6
:1027F000109313030E94552E01C2812F807F1F70FA
:10280000803211F01295107F992021F0F1E09F168F
:10281000E1F02AC0DD2081F080911503AA2051F05B
:1028200001E0A01207C0182B181709F4E7C1109394
:102830001503E4C1812B10C0AA2021F021E0A216CB
:1028400009F4DCC10E944F2E27C0DD2041F035E0A5
:102850003A1508F4D3C1812F0E94EB28CFC184E040
:102860008A1508F4CBC118C0DD2049F0AA2099F3DD
:10287000F701858180FFADC18F708583ECCFAA20E1
:1028800059F0093309F0B7C1FFEF17EE23E0F1501B
:1028900010402040E1F7ADC1812F0E94E028AEC179
:1028A000812F86958695837019F0813059F0A6C1E5
:1028B000DD2019F0C801937002C080E090E00E9412
:1028C0001221A2C1DD2019F0C801937002C080E07E
:1028D00090E00E94FC2098C1802FDD2019F00E941A
:1028E000480C02C00E948C0B0E94E00A8DC1812F0F
:1028F000837009F069C0D11085C1902F929596958B
:102900009770990F990F802F8F70882E912CA12C82
:10291000B12C092E04C0880C991CAA1CBB1C0A945B
:10292000D2F704FF12C04FE050E060E070E004C056
:10293000440F551F661F771F9A95D2F7DB01CA0116
:1029400080959095A095B09503C080E090E0DC0163
:1029500016951695412F4370423019F1C8F4009135
:102960001603109117032091180330911903413079
:1029700059F088299929AA29BB29BC01CD016023D6
:102980007123822393230AC0802A912AA22AB32A80
:10299000BC01CD01682979298A299B290E94EA2F47
:1029A00031C188299929AA29BB29009116031091C0
:1029B00017032091180330911903BC01CD01602742
:1029C000712782279327EACFDD2019F0812F8170AC
:1029D00001C08695882309F415C1902F929596958C
:1029E0009770990F990F802F8F70882E912CA12CA2
:1029F000B12C092E04C0880C991CAA1CBB1C0A947B
:102A0000D2F704FF12C04FE050E060E070E004C075
:102A1000440F551F661F771F9A95D2F7DB01CA0135
:102A200080959095A095B09503C080E090E0DC0182
:102A300016951695412F43704230D9F068F50091F4
:102A4000A4021091A5022091A6023091A702413064
:102A500059F088299929AA29BB29BC01CD016023F5
:102A60007123822393231EC0802A912AA22AB32A8B
:102A700013C088299929AA29BB290091A402109181
:102A8000A5022091A6023091A702BC01CD016027CA
:102A900071278227932706C0BC01CD0168297929B7
:102AA0008A299B290E94812FADC01F70DD2039F03B
:102AB000812F0E94C92F802F0E94EB28A3C0802F56
:102AC0000E94E028812F0E948B2F9CC0802F32EF24
:102AD000931609F440C0391538F090EF991661F05B
:102AE000E1EF9E1699F170C0F3EF9F16D9F124EF34
:102AF000921609F44EC068C0DD2019F134E03A1591
:102B000008F47CC01F7181E090E0A0E0B0E0AC016F
:102B1000BD0104C0440F551F661F771F1A95D2F7D9
:102B20008091A4029091A502A091A602B091A70263
:102B30008A019B01082719272A273B27C901B801C9
:102B400025C025E02A1508F459C0DCCFDD2029F086
:102B5000812F8F712CC0DD20D9F3812F8F710E94BE
:102B60008B2F4CC0DD2079F01F7181E090E0A0E058
:102B7000B0E0BC01CD0104C0660F771F881F991F0C
:102B80001A95D2F703C060E070E0CB010E94812F5C
:102B900035C0DD2079F01F71812F0E94C92F38E0E8
:102BA000139FC0011124836080931103812F0E9421
:102BB000C92F24C081E00E94B02F81E08A15F0F473
:102BC00082E00E94B02F1AC0DD2039F0AA2009F45B
:102BD000BFCF802F0E94332B11C0AA2009F4BDCF94
:102BE000893349F49FEFE7EEF3E09150E040F04085
:102BF000E1F700C00000802F0E94CC2A88EF8B0DE7
:102C0000843010F40E942821CC20A9F08091110377
:102C100080FD11C0F70112828595859585950E94EA
:102C2000C92FC7010E9406108091110385958595D3
:102C300085950E948B2F85E0F701DE0111960190AA
:102C40000D928A95E1F789819A810E940C2F9A81D1
:102C50000CE3809FF001112416E0919FE00DF11D1F
:102C600011248981E80FF11DEE0FFF1FE857FB4F7C
:102C700085919491C5C08091170280FF10C080910A
:102C8000FD01809581701F928F938EE294E09F9357
:102C90008F930E9490060F900F900F900F9080914D
:102CA000FD0180FF57C08E7F8093FD016091FD0183
:102CB0007091FE018091FF01909100020E94C8076F
:102CC0008091170280FF0FC08091FD0181701F92DB
:102CD0008F9386EF93E09F938F930E9490060F90BF
:102CE0000F900F900F900E94F92280910402816052
:102CF00080930402FFEF00E712E0F1500040104023
:102D0000E1F700C000000E944E0780911103877018
:102D100009F476C0F7018281882309F471C082E04A
:102D20002A960FB6F894DEBF0FBECDBFDF91CF91CC
:102D30001F910F91FF90EF90DF90CF90BF90AF90D9
:102D40009F908F900C94B02F69E275CCEE59FF4F95
:102D50000C948B340E94B10AD8CF4DEC5AE066ED4A
:102D60007AE02CC046ED5AE06DEC7AE027C048EEE0
:102D700059E061EF79E022C041EF59E068EE79E077
:102D80001DC040ED59E06CED79E018C04CED59E004
:102D900060ED79E013C048EB59E064EC79E00EC0D7
:102DA00044EC59E068EB79E009C04AED57E06BEE7E
:102DB00077E004C04BEE57E06AED77E00E94F32223
:102DC000A4CF61E081E019C065E082E011C068E055
:102DD00086E00EC06EE089E00BC064E18FE008C0C1
:102DE00067E185E105C061E088E107C062E289E151
:102DF0000E94E1228ACF61E083E20E94FA0985CF36
:102E00002A960FB6F894DEBF0FBECDBFDF91CF91EB
:102E10001F910F91FF90EF90DF90CF90BF90AF90F8
:102E20009F908F900895CF93DF93CDB7DEB76897CB
:102E30000FB6F894DEBF0FBECDBF84B7877F84BFC7
:102E40000FB6F894A8958091600088618093600027
:102E5000109260000FBE90E080E80FB6F894809367
:102E60006100909361000FBE85B7806885BF85B70C
:102E7000806885BF81EF9BE29093C7018093C60174
:102E80000E948D260E94AC268091E200846080938F
:102E9000E200789480919A028823A1F01091E900D1
:102EA0001F709091EC00892F817090FD80E8182BA5
:102EB0001092E9008091E80083FD0E947E231F703C
:102EC0001093E90082E084BD93E095BD9AEF97BD31
:102ED00080936E001092D3011092D4011092D5010C
:102EE0001092D60155985D9889B185FB882780F9A5
:102EF0008093190180911901882321F01092040117
:102F000086E003C086E080930401809305010E945F
:102F1000A30C81110E94E3308091190181112DC011
:102F2000FE0131968AE0DF011D928A95E9F781E37F
:102F3000898382E38A8382E98B8381EF8C8384EFA8
:102F40008D83AFE0B1E0CE010B9621912D938E17CA
:102F50009F07D9F726E0E5E4F1E0DE011B9601903A
:102F60000D922A95E1F7FC01A9E0B1E0CE0141966E
:102F700021912D938E179F07D9F780911901811107
:102F800002C095E001C090E09093E20185E0891BCA
:102F90008093E1010FE011E044E1E42E41E0F42EE2
:102FA000F80181918F010E94C00CE016F106C1F773
:102FB00009E011E03FE0E32E31E0F32ED8018D91DE
:102FC0008D010E94C00CE016F106C1F7E7EDF1E0BB
:102FD00081EE91E0AAEEB1E011921D928E179F074B
:102FE000D9F70E94C92D811102C00E94D42D259AC3
:102FF0002D9882E88093800089E1809381008FEF93
:103000009FEF90938700809386000E94BE220E94CB
:10301000A30C811102C00E94E9300E94C92D8111C8
:1030200002C00E94D42D82E090E00E948E338093F3
:1030300017020E94B82D9093E4018093E30183E08E
:1030400090E00E948E33682F70E080E090E00E9454
:10305000EA2F0E94BE228091E5018111E7C0809194
:10306000170280FF08C08AEA97E09F938F930E941F
:1030700090060F900F908091170280FF08C084E99E
:1030800097E09F938F930E9490060F900F900E945D
:10309000C92D811110C08091170280FF08C08CE6F5
:1030A00097E09F938F930E9490060F900F900E943D
:1030B000D42D0E94FC0788E090E00E949633609334
:1030C000FD017093FE018093FF01909300028091B7
:1030D00004028360809304026E7FD1F48091170212
:1030E00080FF08C083E297E09F938F930E94900631
:1030F0000F900F900E94FC0788E090E00E949633AA
:103100006093FD017093FE018093FF019093000294
:103110000E94B5078091170280FF08C08AE097E0FF
:103120009F938F930E9490060F900F9080911702AB
:1031300080FF0FC08091FD0181701F928F938DEEF3
:1031400096E09F938F930E9490060F900F900F90A0
:103150000F908091170280FF0FC08091FD0186952E
:103160001F928F9382ED96E09F938F930E9490061B
:103170000F900F900F900F908091170280FF0EC05C
:103180008091FE011F928F9388EB96E09F938F931F
:103190000E9490060F900F900F900F908091170251
:1031A00080FF0EC08091FF011F928F938EE996E001
:1031B0009F938F930E9490060F900F900F900F9007
:1031C0008091170280FF0EC0809100021F928F93A2
:1031D00084E896E09F938F930E9490060F900F9043
:1031E0000F900F908091170280FF0EC08091010216
:1031F0001F928F9388E696E09F938F930E9490068C
:103200000F900F900F900F90109203028091040284
:103210008460809304028091FD0180FF04C060E01F
:1032200086950E94FA0981E08093E5018091190159
:10323000811106C087EF80931B0186EF80931A01EE
:1032400020911B01E22FE295EF70F0E031A12F7089
:1032500081E090E0AC01022E01C0440F0A94EAF72D
:10326000542F5095352331A332A1432B42A34091D3
:103270001A01A42FA295AF70B0E091963C9191975E
:103280004F70042E01C0880F0A94EAF7982F90958A
:10329000932391969C93919792969C919297892BC8
:1032A00092968C93929780A190E002C09595879515
:1032B0002A95E2F7817090962C9130E002C0359506
:1032C00027954A95E2F720FD02C090E001C092E008
:1032D000892B809309029091190181E0982790939E
:1032E0000802891B8093E6018CE191E09093E8014C
:1032F0008093E7018BE398E00E94F70584EF282E86
:1033000081E0382E9BEC492E97E0592E23EC622E5B
:1033100027E0722E80919A02853009F04DC087E334
:1033200098E00E94F70500E4F02E00E112E18091A0
:103330009A02853009F03AC080919A02843031F1C6
:1033400080E00E940A221092E901E8E1F0E00FB665
:10335000F894A895E09360000FBEF092600083B7E8
:10336000817F846083BF83B7816083BF78948895B1
:1033700083B78E7F83BF0FB6F894A89580916000C5
:10338000886180936000109260000FBE8091990266
:10339000882309F4CCCF0E94D70CEAEEF1E08191AA
:1033A000811100C32E163F06D1F7C1CF0E94C12A5A
:1033B0000E94BE220E9428210E94D70C81110E94E7
:1033C0000F2DB8E1AB2EB2E0BB2E1AEEC12E11E0EC
:1033D000D12E00E010E0088FD601ED916D01EF8B4A
:1033E000D5018D915D01E827EE8BE11116C00F5FCD
:1033F0001F4F0A30110579F78FEF898B8A8B1B8A53
:103400000E94532D8160782F9D8B8C8B49895A891E
:103410006B898D890E945C2060C08091170281FDBC
:1034200004C0E12CFF24F39436C080ED97E00E94A5
:10343000F705AAEE8A2EA1E09A2EE12CF12CFF923C
:10344000EF925F924F920E94900688EC97E00E9464
:10345000F705F40181914F010E94970F1F928F93FE
:103460007F926F920E94900681EC97E00E94F70590
:10347000FFEFEF1AFF0A0FB6F894DEBF0FBECDBF05
:103480005AE0E516F104D9F6CCCFE394FF0C96E0B0
:10349000E91609F4ACCF8E898F21B9F30E94A30CF1
:1034A0008823A9F0EB86888D8C879F899F2181E0F6
:1034B00009F480E08D870E94532D8160782F9F87CB
:1034C0008E874B855C856D858F850E945C20F80119
:1034D000E85EFD4F8081F826F08280910302882308
:1034E00009F4E1C080910202E091FD01E695E81B3C
:1034F000E093F901823059F4F0E0E75EF74FE49190
:103500000E2F10E0F8E4EF2EF0E2FF2E6BC08630B5
:1035100059F4F0E0EA5EF74FE4910E2F10E0E8E393
:10352000EE2EE0E2FE2E5EC0893061F4E695F0E01A
:10353000ED5EF74FE4910E2F10E07DEBE72E7FE17B
:10354000F72E50C08F3061F4E695F0E0E05FF74F62
:10355000E4910E2F10E060E2E62E6FE1F62E42C0FD
:10356000853159F4F0E0E35FF74FE4910E2F10E05E
:103570005AE9E52E5EE1F52E35C08831F9F0833247
:1035800049F4EBE0F8E00591149148EFE42E4FE1A7
:10359000F42E28C08432C9F08532F1F48E2F63E016
:1035A0000E944934E92FF0E0E85FF74FE4910E2FD5
:1035B00010E031EFE32E3CE1F32E14C008E210E0FE
:1035C00027E0E22E2EE1F22E0DC004EF11E098EC80
:1035D000E92E9DE1F92E06C000ED17E080EFE82E00
:1035E0008CE1F82E8091FA01882361F01092FA01A3
:1035F0000E945F2D9093F8018093F7011092FC01D7
:103600001092FB010E945F2D2091F7013091F8018B
:10361000DC01A21BB30B9D012F3F3F4708F043C0C5
:103620002091F601222311F11092F6012091F4016C
:103630003091F501821B930B8F3F9F47B8F4205DBB
:103640003A483093F5012093F4018091170280FFEE
:1036500008C08FED97E09F938F930E9490060F9084
:103660000F9080910402886080930402C090FB0157
:10367000D090FC01E091F701F091F8010E0F1F1FAF
:103680001093F8010093F70187EF91E0F701099596
:103690008091FB019091FC01892B29F4CD2819F030
:1036A00081E08093F601E09109025E2F550F550FDE
:1036B00020911B01E22FE295EF70F0E080A190E0F5
:1036C0002F7002C0959587952A95E2F7817099270A
:1036D00040911A01E42FE295EF70F0E020A130E074
:1036E0004F7002C0359527954A95E2F7F901E170D0
:1036F000FF2720FF02C0E2E0F0E0E82BF92BE52BEA
:10370000E093090210910802EF70F0E0EA58FE4FD2
:10371000908180910702890F8093070284307CF0AA
:10372000E12F012E000CFF0BEB5FFD4F80818F5FBF
:10373000808360E0812F0E94A90F21E001C020E07A
:10374000809107028D3F74F4E12F012E000CFF0BD6
:10375000EB5FFD4F80818150808361E0812F0E946B
:10376000A90F21E080910702082E000C990B64E05C
:1037700070E00E9477348093070221110E94FA20A2
:1037800086E0E0E1F2E0DE01119601900D928A956B
:10379000E1F7E0901202F0901302009114021091F0
:1037A000150210921202109213021092140210923B
:1037B0001502E11003C0FF2009F451C080910E02F0
:1037C00090910F020E94002D9C0190910D0299236F
:1037D00009F4FEC02531310508F441C09F3F19F0BE
:1037E0009F5F90930D02EE2061F00E94250C1E1445
:1037F00014F09FEF01C091E0899F802D11248093E8
:103800001202FF2061F00E94250C1F1414F09FEF9C
:1038100001C091E0899F802D112480931302309183
:1038200012023323E1F0209113022223C1F045EB71
:103830003403C0011124992319F09093120203C09C
:1038400081E08093120255EB2503C00111249923D6
:1038500019F09093130203C081E0809313020111C9
:1038600003C0112309F451C080910B0290910C0206
:103870000E94002D9C0190910A02992309F4ACC08A
:103880002536310508F441C09F3F19F09F5F9093A2
:103890000A02002361F00E94030C101614F09FEF3F
:1038A00001C091E0899F802D11248093140211237F
:1038B00061F00E94030C111614F09FEF01C091E01B
:1038C000899F802D11248093150230911402332397
:1038D000E1F0209115022223C1F045EB3403C00131
:1038E0001124992319F09093140203C081E080936E
:1038F000140255EB2503C0011124992319F090936C
:10390000150203C081E0809315028091120281119B
:103910000BC080911302811107C0809114028111A4
:1039200003C08091150281110E94E00AEB82FC82A3
:103930000D831E8386E0FE013196A0E1B2E0019086
:103940000D928A95E1F70E9428219091160289171D
:1039500009F4E0CC0E942821182F80931602809150
:10396000170282FFD7CC80FF04C084E298E00E9457
:10397000F7058091170280FF0CC01F921F938FE103
:1039800098E09F938F930E9490060F900F900F9056
:103990000F908091170280FFBDCC8DE198E00E94CE
:1039A000F705B8CC09BD19BD09B400FEFDCF809163
:1039B000D8008F7D8093D8008091E0008260809352
:1039C000E0008091E00081FDFCCF0E94C12AAFCCD5
:1039D000232B09F005CF43CF232B09F057CF95CFE9
:1039E00008957F928F929F92AF92BF92CF92DF9273
:1039F000EF92FF920F931F93CF93DF93FC0182808E
:103A0000748081E08483EEE7F8E09490EDEFF8E0D5
:103A1000E491A12CF5E0BF2ECC24CA94D12CE91955
:103A20000E2F10E080910801A81608F0A2C0EA2C21
:103A3000F12C22E0281568F0BE9CF001BF9CF00D2F
:103A40001124E75BFD4F8091FE0180838091FF018F
:103A5000818371100AC0BE9CF001BF9CF00D11243F
:103A6000E75BFD4F138212826AC0BE9CE001BF9CDF
:103A7000D00D1124C75BDD4F8B818823F9F0815075
:103A80008B832FEF829FC00111246C8170E00E9414
:103A90006334FB01FF27E258F74F8491E82FE919BF
:103AA0002FEFE29FC0011124B8010E94633480917E
:103AB0000002689FB00111247A8341C00E947E33C6
:103AC000209100022695215830E0A901440F551F8E
:103AD000322F2227240F351F232F332782179307D6
:103AE00074F582E0881588F40E947E33B6010E9446
:103AF000773488830E947E332091FF012695622FC0
:103B000070E00E947734280F2983BE9CF001BF9C8F
:103B1000F00D1124E75BFD4F128280910002843189
:103B200020F0893C18F088EC01C084E1BE9CF001D3
:103B3000BF9CF00D1124E75BFD4F8483838380914C
:103B400006019701280F311DC901880F991F280F01
:103B5000391F2B5D3D4FBE9CF001BF9CF00D112421
:103B6000E75BFD4F4281618180810E941308A3942D
:103B700059CFDF91CF911F910F91FF90EF90DF9080
:103B8000CF90BF90AF909F908F907F900C944E07F6
:103B90000F931F93CF93DF93EC0100E010E080912F
:103BA0000801282F30E00217130724F59091060131
:103BB0009801290F311DA901440F551F240F351FEE
:103BC0002B5D3D4F869590E04C81081719071CF43A
:103BD000442331F002C0411103C04091000201C0F2
:103BE00040E06091FF018091FE010E9413080F5F89
:103BF0001F4FD5CF0E944E078C8190E001968170B7
:103C000099278C83DF91CF911F910F9108958F9207
:103C10009F92AF92BF92CF92DF92EF92FF920F935B
:103C20001F93CF93DF938C01FC014481C42FD0E01C
:103C30009E01DE010E942A349B01AC010E94F533F3
:103C40006B017C01E0E2F0E0EC1BFD0BA5E5B0E0D0
:103C50009B01AC010E94F5334B015C019F01DF0128
:103C60000E9491349B01AC010E9400349B01AC0185
:103C70002C0D3D1D4E1D5F1DC501B4010E94083471
:103C8000C22FD22F2A3228F4F3E02F9F9001112463
:103C90000DC025E530E02C1B3109C901880F991FA3
:103CA000280F391F37FF02C02F5F3F4F35952795EB
:103CB000C22FC095F12C85E5E82EED1A8091080100
:103CC000F816C8F4F1FC02C08E2D01C08D2F909122
:103CD00006012F2D30E0290F311DA901440F551F7A
:103CE000240F351F2B5D3D4F4C2F6091FF010E942B
:103CF0001308F394E3CF0E944E07F80184818111E9
:103D000002C091E003C0803219F49FEF9093330119
:103D100090913301890FF8018483DF91CF911F9136
:103D20000F91FF90EF90DF90CF90BF90AF909F905A
:103D30008F9008951F93CF93DF93EC018C818111B5
:103D400009C081E08C831092230292E090933201AB
:103D5000809331018091060190910701891770F4D9
:103D6000E82FF0E09F01220F331FE20FF31FEB5DFE
:103D7000FD4F1182108212828F5FF0CF10E06091B0
:103D800008011617C0F5E12FF0E070E0CF010E94A6
:103D9000773420910601820F20912302022E000C1D
:103DA000330B90E0E217F307CCF020913201022EA2
:103DB000000C330B2E173F078CF09C01220F331F92
:103DC000820F931F9C012B5D3D4F4091000260913B
:103DD000FF018091FE010E9413080BC0FC01EE0F51
:103DE000FF1F8E0F9F1FFC01EB5DFD4F11821082A4
:103DF00012821F5FC4CF0E944E0780913101209133
:103E00002302280F2093230290913201980F909360
:103E1000320119165CF4022E000C330B409108019C
:103E200050E0415051092417350734F081958093B3
:103E30003101813009F41C82DF91CF911F910895E7
:103E40008F929F92AF92BF92CF92DF92EF92FF92AA
:103E50000F931F93CF93DF93EC018A8180FF03C000
:103E6000BB24BA9402C0BB24B3948C8181110DC0D1
:103E700081E0B81206C0809108018150809322022F
:103E800002C01092220281E08C83A12C4CE0942E7F
:103E900080910801A81608F044C080910601CA2C40
:103EA000D12C8601080F111DC801880F991F080F1A
:103EB000191F0B5D1D4FF80111821082128234E030
:103EC000E32EF12C812C80912202880D8D302CF074
:103ED000692D0E945534892F05C087FF03C090913A
:103EE0000801890F082E000C990BC816D90691F409
:103EF000809100028E9DA0018F9D500D112455953B
:103F000047955595479598016091FF018091FE0175
:103F10000E9413088B0CF1E0EF1AF108A1F6A394AC
:103F2000B7CF0E944E078091220291E0B9120EC0D5
:103F3000811107C0809108018150809322021C8268
:103F40000FC0815080932202BC820AC090E001968B
:103F50006091080170E00E947734809322028C8384
:103F6000DF91CF911F910F91FF90EF90DF90CF9055
:103F7000BF90AF909F908F900895FF920F931F93E3
:103F8000CF93DF93EC01F12C0FEF10E0609108016B
:103F9000F616F0F4809106012F2D30E0280F311D28
:103FA000C901880F991F280F391F2B5D3D4F70E005
:103FB000C8010E947734962F8C8140910002609155
:103FC000FF01F99E800D11240E941308F394DECFA7
:103FD0000E944E079A818C8190FF02C08F5F01C0C2
:103FE00081508C83DF91CF911F910F91FF900895A5
:103FF0000F931F93CF93DF9300D01F92CDB7DEB7FF
:104000008C018091240281110AC09E012F5F3F4FD5
:104010004FEF6FEF0E9413088A8180932402F8010A
:104020008481813051F028F0823061F44091240283
:104030000AC08091240240E007C06091240240E061
:1040400080E003C040E080E060E00E949A07F80151
:10405000848190E0019663E070E00E94773484836D
:104060000F900F900F90DF91CF911F910F910895B6
:10407000CF93DF93EC01EDEFF1E0438162818C811E
:104080000E94A9088C818F5F8C83DF91CF91089566
:10409000CF93DF93EC01EC81F0E0E258F74F4491CD
:1040A000EDEFF1E0628181810E94A9088C818F5F30
:1040B0008C83DF91CF9108951F93CF93DF93CDB77A
:1040C000DEB767970FB6F894DEBF0FBECDBF342FB3
:1040D0004B8B252F5C8B6D8B7E8B8F8B4E895F89F5
:1040E00061111092130386E0FE013D96DF01982FC7
:1040F0001D929A95E9F73D872E876F87598B488BDC
:10410000DE01179601900D928A95E1F7CE01079690
:104110000E94F52881113EC086E0FE013796DE013F
:10412000119601900D928A95E1F7FF81E8856A85E5
:104130007B856115710531F0EF3F31F481E0FF3F80
:1041400019F403C081E001C080E080FD23C020910C
:10415000B70230E0C9010196877099274091E802C3
:1041600050E08417950779F1F983EA837D836C83A6
:1041700096E0929FD001939FB00D1124A854BD4F9B
:10418000FE01319601900D929A95E1F78093B70266
:104190000E94F42F16E08091E8029091B7028917EF
:1041A000F9F0189FC001112488549D4F0E94F528F2
:1041B0008823B1F08091E80290E0019687709927FA
:1041C0008093E802E8CF0E94C12A1092B7021092B1
:1041D000E802E1EBF2E086E0DF011D928A95E9F763
:1041E00067960FB6F894DEBF0FBECDBFDF91CF91BB
:1041F0001F9108950C940F2D2091890230918A020D
:104200002817390771F090938A0280938902E09110
:10421000E701F091E801309721F00084F185E02D6D
:104220000994089520918702309188022817390750
:1042300071F09093880280938702E091E701F091FA
:10424000E801309721F00680F781E02D0994089568
:10425000E091E701F091E801309721F00190F081C1
:10426000E02D099480E008950F931F93CF93DF937F
:10427000C42FD22FFC0182818823C9F04093D10141
:104280000E94532D909386028093850280E28C0FCA
:10429000883008F072C0C77081E001C0880FCA95ED
:1042A000EAF7DF91CF911F910F910C94EB28809149
:1042B000D10148133DC080918502909186020E94F1
:1042C000002D883C9105A0F510E21D0FCD17E9F0F7
:1042D00080E28C0F883040F4C77081E001C0880F05
:1042E000CA95EAF70E94E028183090F581E09D2FEA
:1042F000977001C0880F9A95EAF70E94EB2809335E
:1043000069F560E570E089E32CC0093319F460E5D4
:1043100070E002C060E070E0802F0E94D72B183060
:1043200060F5D77081E001C0880FDA95EAF70AC01E
:1043300080E28C0F883008F5C77081E001C0880FDB
:10434000CA95EAF7DF91CF911F910F910C94E02865
:10435000093351F460E570E089E309C060E070E082
:10436000802F0E94D72BDDCF60E070E0802FDF919F
:10437000CF911F910F910C94D72BDF91CF911F916B
:104380000F910895FF920F931F93CF93DF93D091D6
:10439000E6010D2F10E00B5F1D4FFC01C081F801FD
:1043A0008081C81BFC2E80E01F145CF4FA94F80195
:1043B00080818F5F808360E08D2F0E94A90F81E054
:1043C000F3CF9C2FC7FD90E0C91BCC2359F0CF5FE2
:1043D000F80180818150808361E08D2F0E94A90FB8
:1043E00081E0F3CF882339F0DF91CF911F910F91B6
:1043F000FF900C94FA20DF91CF911F910F91FF90C5
:104400000895E0910802F0E0EB5FFD4F2081FC0190
:1044100020830895CF92DF92EF92FF92863048F486
:10442000811108C0909180009F77909380002D9813
:1044300006C085E090918000906890938000282FBE
:1044400030E0AFEFBFEF0E942A3425E030E040E0DB
:1044500050E00E940834B42FA32F922F8827492FB1
:104460005A2F6B2F7727CA014C3724E1520728F4C3
:1044700069E070E00E94633429C0DB01CA018A5000
:10448000974DAF4FBF4F6627782F892F9A2F25EF73
:1044900038E241E050E00E94083469017A01CA0123
:1044A000B9010E9439349B01AC01C701B6010E94D9
:1044B0003934BB27A92F982F872F009721E0A20717
:1044C000B10511F0BC0102C06FEF7FEF709389005E
:1044D00060938800FF90EF90DF90CF9008958091D7
:1044E000D0018695869586950895863008F085E0FA
:1044F0009091D0019770282F220F220F220F922B1C
:104500009093D001987F21E009F420E09091D001B0
:1045100020FB90F99093D0010E940A226091D00173
:1045200086E090E00C94A2338091D00181700895D0
:104530008091D00180FD21C081608093D0018130C5
:1045400019F489E08093D0016091D00186E090E079
:104550000E94A2338091170280FF08C08EE799E085
:104560009F938F930E9490060F900F908091D0019F
:104570008695869586950C940A2208950E94C92DE9
:10458000811102C00E94D42D86E090E00E948E33FB
:104590008093D001282F26952695269530E0263049
:1045A000310524F0877088628093D0018091D0011A
:1045B00080FF04C086958695869501C080E00C94A6
:1045C0000A229091FD0190FF04C09695981740F043
:1045D00003C0811105C090E0961710F40C94D60A20
:1045E00061E00C94FA09882311F0FA0101C0FB0183
:1045F0000994109203028091040284608093040263
:104600008091170280FF08C085E698E09F938F9302
:104610000E9490060F900F9008956091FD0166959D
:1046200070E04BE050E086E291E00E94A034892BDC
:1046300019F481E0809303020E945F2D9093F801AA
:104640008093F7018091040284608093040280913A
:10465000170280FF08C08CE498E09F938F930E941C
:1046600090060F900F9008950F931F938091A402CE
:104670009091A502A091A602B091A7028C019D0184
:104680000670112722273327BC01CD010630110502
:104690002105310511F4686001C0677F1F910F91FA
:1046A0000C94812FEF92FF920F931F93CF93DF9380
:1046B0007C018B010E94FE2F811119C0E7010115B9
:1046C0001105A1F08091E80085FD0AC08091E80005
:1046D0008E778093E8000E94FE2F882381F307C025
:1046E00089918093F10001501109E9CF80E0DF91B9
:1046F000CF911F910F91FF90EF9008951F93CF934B
:10470000DF93CDB7DEB7AA970FB6F894DEBF0FBE22
:10471000CDBFECE9F2E084EA92E02091F100219330
:104720008E179F07D1F780919D02833009F460C0F6
:1047300030F4813071F0823009F49AC0B1C08A300F
:1047400009F486C08B3009F46BC0893009F0A8C029
:1047500020C080919C02813A09F0A2C08091E800BB
:10476000877F8093E8008091A0029091A102892B1D
:1047700021F468E080E992E003C060E080E090E02E
:1047800070E00E9485308091E8008B778093E8008C
:1047900087C080919C02813209F082C08091A00282
:1047A0009091A102029708F07BC08091E800877F7A
:1047B0008093E8008091E80082FD05C080919A0214
:1047C0008111F8CF6DC02091F3008091F20090E04C
:1047D000922B029729F48091F1008B7F813021F494
:1047E0008091F10080938F028091E8008B7754C014
:1047F00080919C02813A09F053C08091A00290916F
:10480000A102892B09F04CC08091E800877F80933A
:10481000E8008091E80080FFFCCF8091340137C030
:1048200080919C028132E1F58091A0029091A102D9
:10483000892BB1F58091E800877F8093E8000E9482
:10484000313080919E02809334010E94C12A28C099
:1048500080919C02813221F58091E800877F8093CE
:10486000E8000E94313080919F0280938E0218C030
:1048700080919C02813AA1F48091E800877F809327
:10488000E8008091E80080FFFCCF80918E02809349
:10489000F1008091E8008E778093E8000E9431302B
:1048A0008091E80083FFD7C180919C0290919D0286
:1048B000492F50E04A30510508F0CDC1FA01EA58BD
:1048C000FF4F0C948B34803821F0823809F0C3C13B
:1048D00008C08091980290919902992389F0826092
:1048E0000FC08091A0028F70873008F0B4C1809310
:1048F000E9008091EB0085FB882780F91092E900A0
:104900009091E800977F9093E8008093F1001092D7
:10491000F1006FC1282F2D7F09F09DC1882319F068
:10492000823061F098C180919E02813009F093C17C
:10493000933009F080E0809399022EC080919E020E
:1049400081112AC08091A0028F702FEF280F26308E
:1049500008F081C18093E9002091EB0020FF1CC08A
:10496000933021F48091EB00806214C09091EB00B1
:1049700090619093EB0021E030E0A90102C0440F68
:10498000551F8A95E2F74093EA001092EA00809161
:10499000EB0088608093EB001092E9008091E800C2
:1049A000877F8093E8000E94313055C1811153C147
:1049B00010919E021F778091E3008078812B809375
:1049C000E3008091E800877F8093E8000E94313007
:1049D0008091E80080FFFCCF8091E30080688093A5
:1049E000E300111102C082E001C083E080939A02CB
:1049F00032C18058823008F02EC120919E02309141
:104A00009F022C3D53E0350779F583E08A838AE2E3
:104A100089834FB7F894DE01139620E03EE051E21F
:104A2000E32FF0E050935700E49120FF03C0E2959C
:104A3000EF703F5FEF708E2F90E0EA3010F0C79676
:104A400001C0C0968D939D932F5F243149F74FBFCE
:104A50008091E800877F8093E8006AE270E0CE01F1
:104A600001960E948530B4C08091A0029091A1026D
:104A7000432F552743305105A9F068F441305105C3
:104A800009F4F8C04230510509F0E5C08BE590E02B
:104A9000E1E8FAE04BC04132510529F142325105BB
:104AA00089F1D9C0C901992781309105A1F058F049
:104AB000029709F0D0C0EEEEFAE0E4918E2F90E07C
:104AC000EEEEFAE030C0E6E2FBE0E4918E2F90E0FB
:104AD000E6E2FBE028C0E6E1FBE0E4918E2F90E007
:104AE000E6E1FBE020C08330910508F0B4C0880FF8
:104AF000991FFC01E157FE4F0190F081E02D89E004
:104B000090E014C08330910508F0A5C0FC01EE0FC1
:104B1000FF1FE757FE4F0190F081E02DDC01AA57FF
:104B2000BE4F8C9190E0009709F495C02091E80069
:104B3000277F2093E8002091A2023091A30228173A
:104B4000390708F4C90140E0009789F120919A02E1
:104B5000222309F43DC02530D9F12091E80023FD3E
:104B600037C02091E80022FD2FC02091E80020FFEF
:104B7000EBCF4091F3002091F20030E0342B00970E
:104B800059F02830310540F444914093F1003196BA
:104B900001972F5F3F4FF3CF41E02830310509F0F7
:104BA00040E02091E8002E772093E800CDCF41111E
:104BB000CDCF0AC080919A02882351F0853041F010
:104BC0008091E80083FD04C08091E80082FFF2CF6D
:104BD0008091E8008B778093E8003DC08038D9F55C
:104BE0008091E800877F8093E80080919B0280930A
:104BF000F1008091E8008E77D4CE81112CC0809195
:104C00009E0290919F02992702972CF58091E800CF
:104C1000877F8093E80010919E0210939B020E9470
:104C20003130111106C08091E30087FD02C081E0A0
:104C300001C084E080939A0242E061EC81E00E942E
:104C4000503042E261EC82E00E94503042E261EC7E
:104C500083E00E9450308091E80083FF10C0809173
:104C6000E800877F8093E8008091EB00806280936A
:104C7000EB0005C082E190E0ECEDFAE057CFAA9698
:104C80000FB6F894DEBF0FBECDBFDF91CF911F915D
:104C900008951F920F920FB60F9211242F933F93F6
:104CA0004F935F936F937F938F939F93AF93BF9334
:104CB000CF93DF93EF93FF93C091E900CF70809182
:104CC000EC00D82FD17080FDD0E81092E9008091DF
:104CD000F000877F8093F00078940E947E231092EA
:104CE000E9008091F00088608093F000CD2BCF70B8
:104CF000C093E900FF91EF91DF91CF91BF91AF9108
:104D00009F918F917F916F915F914F913F912F91E3
:104D10000F900FBE0F901F901895E8EDF0E0808186
:104D20008E7F80831092E2001092DA001092E100F0
:104D3000A0EEB0E08C9181608C9380818F7780832E
:104D400019BCA7EDB0E08C918E7F8C9380818F7E13
:104D5000808310928D020895CF92DF92EF92FF929E
:104D60000F931F93CF93DF93C8EDD0E088818F7EA0
:104D70008883E7EDF0E080818160808384E082BFFA
:104D800081E080938D0288818E7F888302EE10E01F
:104D9000F80110821092DA0081EEC82ED12CF601B3
:104DA000108288818F778883888180688883888152
:104DB0008F7D888319BC10929A0210929B021092E8
:104DC00099021092980290EEE92EF12CF701808161
:104DD0008B7F808388818160888342E060E080E00F
:104DE0000E945030F60180818E7F8083F80180819F
:104DF00081608083808188608083F70180818E7FDD
:104E00008083888180618883DF91CF911F910F918A
:104E1000FF90EF90DF90CF9008951F920F920FB602
:104E20000F9211242F933F934F935F936F937F9330
:104E30008F939F93AF93BF93EF93FF938091E10084
:104E400082FF49C08091E20082FF45C08091E1006D
:104E50008B7F8093E10020918C022F5F822F62E391
:104E60000E944934992319F020938C0234C0109287
:104E70008C0280918B02882371F180919A02843098
:104E800041F58091E9008F702091EC00922F917094
:104E900020FD90E8892B93E09093E9009091EB003E
:104EA00090FF14C09091EE0097FF10C09091E80021
:104EB00095FF03C01092F100F9CF9091E80090FFA8
:104EC00005C09091E8009E779093E8008F708093E2
:104ED000E90010928B028091DA0080FF32C080914D
:104EE000D80080FF2EC08091DA008E7F8093DA0098
:104EF0008091D90080FF1CC080E189BD82E189BD1D
:104F000009B400FEFDCF81E080939A028DE69AE01D
:104F10000E94F70580918D02811113C00E948D2699
:104F20000E94AC268091E20084608093E20009C078
:104F300019BC10929A0281E79AE00E94F70510923C
:104F40008D028091E10080FF1BC08091E20080FF14
:104F500017C08091E2008E7F8093E2008091E20092
:104F600080618093E2008091D80080628093D800B5
:104F700019BC85E080939A0285E79AE00E94F705C4
:104F80008091E10084FF32C08091E20084FF2EC056
:104F900080E189BD82E189BD09B400FEFDCF809129
:104FA000D8008F7D8093D8008091E1008F7E809320
:104FB000E1008091E2008F7E8093E2008091E20028
:104FC00081608093E20080919B02882311F084E04D
:104FD00007C08091E30087FD02C081E001C083E04B
:104FE00080939A0289E79AE00E94F7058091E10098
:104FF00083FF2BC08091E20083FF27C08091E100F6
:10500000877F8093E10082E080939A0210929B0256
:105010008091E1008E7F8093E1008091E2008E7F9D
:105020008093E2008091E20080618093E20042E0A0
:1050300060E080E00E9450308091F00088608093B2
:10504000F0008DE79AE00E94F705FF91EF91BF9184
:10505000AF919F918F917F916F915F914F913F9110
:105060002F910F900FBE0F901F9018950F931F93C5
:10507000CF93DF938091B60282958F7009F05DC067
:105080008091B302882309F458C08091E8021091FE
:10509000B7026091B1027091B202C091B402D09196
:1050A000B50291E06F3F09F090E0292F06E08117EB
:1050B00009F443C0209721F07F3F21F030E003C086
:1050C00031E001C0322F90E030FD34C0089FF00184
:1050D000099FF00D1124DF01A854BD4F11963C919A
:1050E0001197371327C03C91361324C012963C9178
:1050F000129731111FC013964D915C9114974C1B60
:105100005D0B483C5105B0F48091B6028F70806110
:105110008093B602E354FD4F80818F70806180835D
:1051200081EB92E00E940610DF91CF911F910F91C9
:105130000C94F42F01968770BACFDF91CF911F9115
:105140000F9108950E94012F292F2F70E92FE295CA
:10515000EF704E2F50E0FA013297EE30F105B8F4BF
:10516000E058FF4F0C948B34803F99F018F4883E40
:1051700070F40FC0843F59F40CC0883E50F0813F5A
:1051800031F407C0822F869586958695089580E034
:10519000089581E00895882341F08095909113034C
:1051A0008923809313030C94552E0895882339F096
:1051B00090911303892B809313030C94552E08951B
:1051C000882341F0809590911403892380931403E0
:1051D0000C94552E0895882339F090911403892B4F
:1051E000809314030C94552E08959F92AF92BF9212
:1051F000CF92DF92EF92FF920F931F93CF93DF93A3
:10520000CDB7DEB761970FB6F894DEBF0FBECDBF46
:105210008C0185E0F801DE011D9601900D928A95C2
:10522000E1F7F80190818181E2803091B1026091D3
:10523000B2024091B4025091B5024115510531F0CE
:105240006F3F31F421E03F3F19F403C021E001C07A
:1052500020E0F22FF1709F2E20FD23C1F801C380C2
:10526000D48021EBA22E22E0B22EF090B302F60100
:10527000E41BF50BFF2009F4CEC02091B602E83CF8
:10528000F10508F099C0422F407F09F051C0681322
:1052900011C039130FC0FE2CE1100CC02F7020611B
:1052A0002093B602C5010E9406108091B602F80153
:1052B000858337C1CD2831F08F3F31F421E09F3F06
:1052C00019F403C021E001C020E020FD03C021E06B
:1052D0002E2502C020E030E0F22FF170FF2E20FFDB
:1052E0001DC02091E8024091B70256E0241709F44E
:1052F000F6C030E0529FF001539FF00D1124E854A6
:10530000FD4F6181861306C06081961303C06281E0
:10531000E61204C02F5F3F4F2770E8CFFE2CEE202F
:1053200009F4FFC08091B60281608093B60250C03C
:10533000681307C0391305C0E11003C0F8012583C5
:105340008DC09D878E878D859E850E94A22888238B
:1053500069F1EE2059F12091B602822F82958F706B
:1053600090E0029774F08091B1029091B202988718
:105370008F831986DB86CA862C87CE0107960E940A
:10538000061086E0F801A1EBB2E001900D928A953B
:10539000E1F70E9436280DC06817E1F09D878E87DF
:1053A0008D859E850E94A22881111EC0C8010E9481
:1053B0000610FF24F394B5C0422F407F69F781EBBC
:1053C00092E00E94061086E0F50111928A95E9F7B5
:1053D000F12CA7C03913E2CFE110E0CFF80125830B
:1053E000C8010E94061057C0EE2001F32091B602BA
:1053F000822F82958F7090E002971CF28091B1020B
:105400009091B2029A8389831B82DD82CC822E83A3
:10541000CE010196B4CFE83CF105E8F5FE2CEE2074
:1054200029F2681327C0391325C02091B60220FD48
:1054300018C0822F82958F70482F50E0411551057A
:1054400081F0F80125834F30510541F08F5F982F8F
:105450009295907F822F8F70892B8583C8010E943F
:10546000061086E0F801A1EBB2E001900D928A955A
:10547000E1F757C09D878E878D859E850E94A22863
:1054800081117FCF8091B60281608093B602C801FE
:105490000E94061046C086E0F50111928A95E9F750
:1054A00040C0EE2009F482CF9D878E878D859E8532
:1054B0000E94A228F82E882309F478CF86E0F8010C
:1054C000A1EBB2E001900D928A95E1F78091B102D3
:1054D0009091B2020E94012F0E94362822C09D871F
:1054E0008E878D859E850E94012F292F22952F70F2
:1054F000223028F49F7039F0811105C00BC0243090
:1055000028F49F7049F4805E883020F0C8010E9422
:1055100006109F2CF92C05C0F8019581907F99F712
:10552000F9CF8F2D61960FB6F894DEBF0FBECDBFB9
:10553000DF91CF911F910F91FF90EF90DF90CF906F
:10554000BF90AF909F90089580E090E00E9412215C
:1055500080E090E00E94FC2010921303109212034E
:105560000E94552EE0E1F2E086E0DF011D928A956F
:10557000E9F710920D0210920A021092A8020C9400
:10558000E00A1092140386E0EBEAF2E0DF011D92DC
:105590008A95E9F70C94A42A882309F463C0823819
:1055A00069F40E94282181FF5DC069E389EA92E0E5
:1055B0000E949E2D0E94552E69E30EC0833891F4FF
:1055C0000E94282180FF4EC063E589EA92E00E9494
:1055D0009E2D0E94552E63E589EA92E00E94912D4E
:1055E0000C94552E843869F40E94282182FF3AC019
:1055F00067E489EA92E00E949E2D0E94552E67E49E
:10560000EBCF9CEF980F913A10F4682FE5CF90E222
:10561000980F983088F4877021E030E0A90102C02B
:10562000440F551F8A95E2F7CA01809590911403A3
:10563000892380931403D4CF9BE5980F933020F4F3
:1056400080E090E00C94122198E5980F973120F4B7
:1056500080E090E00C94FC208D3E20F00E948C0BAA
:105660000C94E00A0895CF93882309F49EC0C82FB4
:105670008238B1F40E94282181FD97C069E389EA4C
:1056800092E00E949E2D0E94552E2FEF81EE94E015
:10569000215080409040E1F700C0000069E317C04E
:1056A0008338E1F40E94282180FD7FC063E589EA08
:1056B00092E00E949E2D0E94552E2FEF81EE94E0E5
:1056C000215080409040E1F700C0000063E589EA86
:1056D00092E00E94912DCF910C94552E8438B1F414
:1056E0000E94282182FD61C067E489EA92E00E945D
:1056F0009E2D0E94552E2FEF81EE94E02150804088
:105700009040E1F700C0000067E4E1CF8CEF8C0F20
:10571000813A80F4EBEAF2E081EB92E02191C2174A
:10572000E1F18E179F07D1F76C2F89EA92E00E9472
:105730009E2DD1CF80E28C0F883068F4C77081E055
:1057400090E001C0880FCA95EAF790911403892B65
:1057500080931403C0CFEBE5EC0FE33040F4F0E0AE
:10576000EB56FE4F808190E0CF910C941221E8E53A
:10577000EC0FE73150F4F0E0EE0FFF1FE856FE4F5C
:1057800080819181CF910C94FC20CD3E70F08C2FC4
:105790000E94480CCF910C94E00A6C2F89EA92E0A9
:1057A0000E94912D0E94552EBFCFCF9108951F9337
:1057B000CF93DF93182FEB010E94332B209741F0FA
:1057C0008FE99FE00197F1F700C000002197F6CF25
:1057D000812FDF91CF911F910C94CC2A80918F0261
:1057E00008959FB7F89410928B029FBF90919A02F0
:1057F000943009F057C09091E9009F703091EC000F
:10580000232F217030FD20E8922B23E02093E90024
:105810002091EB0020FF43C02091EE0027FF3FC006
:1058200020911E03222321F02091E80025FF37C09C
:1058300010921E0326E03091E80035FD15C030912E
:105840009A02343061F53091EB0035FD28C02150CB
:1058500021F481E080931E0322C0EFE9FFE031973D
:10586000F1F700C00000E7CF8093F1008091E800DD
:1058700085FD0AC08091E80080FFFCCF8091E800A0
:105880008E778093E80006C08FB7F89421E02093CC
:105890008B028FBF9F709093E90080E008959F7006
:1058A0009093E9008FEF0895CF93DF9300D01F927C
:1058B000CDB7DEB790919A02943019F589837B8336
:1058C0006A8382E08093E9008FEF9091E800815035
:1058D00095FD06C095ED9A95F1F700008111F5CF81
:1058E0008091E80085FF0DC040E050E063E070E08B
:1058F000CE0101960E9452238091E8008E7780931A
:10590000E8000F900F900F90DF91CF910895BC01A8
:1059100084E00C94542CBC0183E00C94542C22E0C1
:105920002093E9002FEF3091E800215035FD06C0AB
:1059300035ED3A95F1F700002111F5CF2091E800FF
:1059400025FF0BC040E050E066E070E00E9452236B
:105950008091E8008E778093E8000895CF93DF93DD
:1059600021E02093E9002FEF3091E800215035FD30
:1059700006C035ED3A95F1F700002111F5CF2091E1
:10598000E80025FF14C0EC0140E050E068E070E062
:105990000E9452238091E8008E778093E80088E08F
:1059A000FE01A0E9B2E001900D928A95E1F7DF9146
:1059B000CF91089578941F920F920FB60F921124F1
:1059C0008F939F93AF93BF9380911A0390911B0382
:1059D000A0911C03B0911D030196A11DB11D8093E0
:1059E0001A0390931B03A0931C03B0931D03BF9154
:1059F000AF919F918F910F900FBE0F901F901895B0
:105A00009C014FB7F89480911A0390911B03A091C9
:105A10001C03B0911D034FBF821B930B08952FB73A
:105A2000F89460911A0370911B0380911C0390916C
:105A30001D032FBF08950F931F930E94A30C88236B
:105A400021F01F910F910C940F2D0E940F2D0091AA
:105A5000D3011091D4012091D5013091D601600F6E
:105A6000711F821F931F1F910F910895CF92DF9294
:105A7000EF92FF926B017C010E94A30C81110EC07A
:105A80000E940F2DC61AD70AE80AF90AC092D3015C
:105A9000D092D401E092D501F092D601FF90EF9020
:105AA000DF90CF9008952FB7F89480911A039091CA
:105AB0001B03A0911C03B0911D032FBF08950E94EA
:105AC000A30C81110C94532D0E941B2DCB01089522
:105AD0001F920F920FB60F9211248F939F93AF9343
